:0200000460009A
:10000000464346420004015600000000010303007D
:1000100000000000000000000000000000000000E0
:1000200000000000000000000000000000000000D0
:1000300000000000000000000000000000000000C0
:1000400000000000000406000000000000000000A6
:100050000000800000000000000000000000000020
:100060000000000000000000000000000000000090
:100070000000000000000000000000000000000080
:10008000EB04180A063204260000000000000000FD
:100090000000000000000000000000000000000060
:1000A0000000000000000000000000000000000050
:1000B0000000000000000000000000000000000040
:1000C0000000000000000000000000000000000030
:1000D0000000000000000000000000000000000020
:1000E0000000000000000000000000000000000010
:1000F0000000000000000000000000000000000000
:1001000000000000000000000000000000000000EF
:1001100000000000000000000000000000000000DF
:1001200000000000000000000000000000000000CF
:1001300000000000000000000000000000000000BF
:1001400000000000000000000000000000000000AF
:10015000000000000000000000000000000000009F
:10016000000000000000000000000000000000008F
:10017000000000000000000000000000000000007F
:10018000000000000000000000000000000000006F
:10019000000000000000000000000000000000005F
:1001A000000000000000000000000000000000004F
:1001B000000000000000000000000000000000003F
:1001C000000100000010000000000000000000001E
:1001D000000004000000000000000000000000001B
:1001E000000000000000000000000000000000000F
:1001F00000000000000000000000000000000000FF
:1002000000000000000000000000000000000000EE
:1002100000000000000000000000000000000000DE
:10100000D10020410020006000000000000000002E
:1010100020100060001000600000000000000000D0
:10102000000000600000800000000000FFFFFFFFE4
:1010300000000000000000000000000000000000B0
:1010400000000000000000000000000000000000A0
:101050000000000000000000000000000000000090
:101060000000000000000000000000000000000080
:10200000000D212085AF0060E780016059AF0060BE
:1020100059AF006059AF006059AF00600000000088
:10202000000000000000000000000000CDA70060DC
:1020300059AF00600000000079A70060A9D10060DE
:1020400071A8006071A8006071A8006071A80060AC
:1020500071A8006071A8006071A8006071A800609C
:1020600071A8006071A8006071A8006071A800608C
:1020700071A8006071A8006071A8006071A800607C
:1022C00090F800F06DE9024520F007016FF0000C76
:1022D00010F0070491F820F040F049804FF000041E
:1022E0006FF00700D1E9002391F840F000F10800F9
:1022F00082FA4CF2A4FA8CF283FA4CF3A2FA8CF331
:102300004BBBD1E9022382FA4CF200F10800A4FA97
:102310008CF283FA4CF3A2FA8CF3E3B9D1E90423EB
:1023200082FA4CF200F10800A4FA8CF283FA4CF322
:10233000A2FA8CF37BB9D1E9062301F1200182FADC
:102340004CF200F10800A4FA8CF283FA4CF3A2FAE2
:102350008CF3002BC6D0002A04BF04301A4612BAF0
:10236000B2FA82F2FDE8024500EBD2007047D1E9F3
:10237000002304F00305C4F100004FEAC50514F082
:10238000040F91F840F00CFA05F562EA05021CBF53
:1023900063EA050362464FF00004A9E7000000006D
:1023A000A2EB0300704700BF02780B78012A28BF18
:1023B0009A42F5D16DE9044540EA0104CDE902678E
:1023C0006FF0000C4FEA447212B380EA010414F07B
:1023D000070F6AD100F0070420F0070004F003059E
:1023E00021F007014FEAC505F0E8042314F0040FBB
:1023F000F1E804670CFA05F462EA040266EA0406EE
:102400000AD063EA0403624667EA0407664603E00B
:10241000F0E80423F1E8046782FA4CF582EA060446
:10242000A4FA8CF46CBB83FA4CF583EA0705A5FA91
:102430008CF595B950E9022351E9026782FA4CF50F
:1024400082EA0604A4FA8CF483FA4CF583EA0705C1
:10245000A5FA8CF52543DBD09CB92DBAB5FA85F4E5
:1024600024F0070427FA04F1DDE9026723FA04F3F4
:1024700003F0FF0001F0FF01FDE80445A0EB0100BF
:10248000704724BAB4FA84F424F0070426FA04F15D
:10249000DDE9026722FA04F202F0FF0001F0FF0119
:1024A000FDE80445A0EB0100704714F0030F3CD198
:1024B00010F0030428D150F8082B51F8083B82FA99
:1024C0004CF582EA0305A5FA8CF55DB950F8042CA9
:1024D00051F8043C82FA4CF582EA0305A5FA8CF522
:1024E000002DE8D02DBAB5FA85F424F0070423FABC
:1024F00004F122FA04F202F0FF0001F0FF01FDE80E
:102500000445A0EB010070474FEAC40420F003002B
:1025100050F8082B21F0030151F8083B0CFA04F4A1
:1025200062EA040263EA0403C9E710F003041AD064
:10253000A1EB040120F00300E40750F8042B06D0BF
:102540000FD28B785FFAA2F4E41A06D12BB1CB78C4
:102550005FFAB2F4E41A00D11BB920465DF8104BC3
:10256000704701F1040150F8042BCC0721F003015E
:1025700051F8043B48D824D222F07F4482FA4CF52B
:1025800094EA1325A5FA8CF50AD165B951F8043BF4
:1025900084EA0204B4EB036F0ED150F8042BEBE78E
:1025A0004FEA132355E035F07F454DD10878FDE81B
:1025B0000445C0F1000070474FEA126203F0FF03C8
:1025C00047E002EA1C4482FA4CF594EA1345A5FA66
:1025D0008CF50AD165B951F8043B84EA0204B4EBE6
:1025E000034F0CD150F8042BEBE74FEA134330E0D4
:1025F00015EA1C4528D10B884FEA124229E04FEA20
:10260000124203EA1C4324E002F0FF0482FA4CF574
:1026100094EA1365A5FA8CF50AD165B951F8043B23
:1026200084EA0204B4EB032F09D150F8042BEBE742
:102630004FEA13630DE015F0FF0F05D10B684FEA69
:10264000122223F07F4304E04FF00000FDE8044530
:10265000704712BA1BBA82FA4CF482EA0304A4FA55
:102660008CF5B5FA85F402FA04F203FA04F34FEAA2
:102670001260FDE80445A0EB136070470000000005
:1026800001F0FF01102A2BDB10F0070F08D010F823
:10269000013B013A8B422DD010F0070F42B3F6D127
:1026A000F0B441EA012141EA014122F007047FF040
:1026B00000070023F0E80256083C85EA010586EA97
:1026C000010685FA47F5A3FA87F586FA47F6A5FAD3
:1026D00087F68EB9EED1F0BC01F0FF0102F00702DF
:1026E00032B110F8013B013A83EA010313B1F8D18A
:1026F0000020704701387047002D06BF354603386B
:10270000073815F0010F07D1013015F4807F02BFA3
:10271000013015F4C03F0130F0BC0138704700BFF4
:1027200081F0004102E000BF83F0004330B54FEA82
:1027300041044FEA430594EA050F08BF90EA020FEF
:102740001FBF54EA000C55EA020C7FEA645C7FEA82
:10275000655C00F0E2804FEA5454D4EB5555B8BFA5
:102760006D420CDD2C4480EA020281EA030382EA16
:10277000000083EA010180EA020281EA0303362DA8
:1027800088BF30BD11F0004F4FEA01314FF4801C7B
:102790004CEA113102D0404261EB410113F0004F8D
:1027A0004FEA03334CEA133302D0524263EB430344
:1027B00094EA050F00F0A780A4F10104D5F1200EE2
:1027C0000DDB02FA0EFC22FA05F2801841F100013D
:1027D00003FA0EF2801843FA05F359410EE0A5F111
:1027E00020050EF1200E012A03FA0EFC28BF4CF042
:1027F000020C43FA05F3C01851EBE37101F00045F8
:1028000007D54FF0000EDCF1000C7EEB00006EEB04
:102810000101B1F5801F1BD3B1F5001F0CD349088E
:102820005FEA30004FEA3C0C04F101044FEA4452E5
:1028300012F5800F80F09A80BCF1004F08BF5FEA6C
:10284000500C50F1000041EB045141EA050130BD4C
:102850005FEA4C0C404141EB0101013C28BFB1F55E
:10286000801FE9D291F0000F04BF01460020B1FAA9
:1028700081F308BF2033A3F10B03B3F120020CDA7C
:102880000C3208DD02F1140CC2F10C0201FA0CF05A
:1028900021FA02F10CE002F11402D8BFC2F1200CBF
:1028A00001FA02F120FA0CFCDCBF41EA0C01904075
:1028B000E41AA2BF01EB0451294330BD6FEA0404BE
:1028C0001F3C1CDA0C340EDC04F11404C4F12002A9
:1028D00020FA04F001FA02F340EA030021FA04F3BB
:1028E00045EA030130BDC4F10C04C4F1200220FA12
:1028F00002F001FA04F340EA0300294630BD21FA50
:1029000004F0294630BD94F0000F83F4801306BF15
:1029100081F480110134013D4EE77FEA645C18BF09
:102920007FEA655C29D094EA050F08BF90EA020FA0
:1029300005D054EA000C04BF1946104630BD91EA98
:10294000030F1EBF0021002030BD5FEA545C05D19B
:102950004000494128BF41F0004130BD14F58004DA
:102960003CBF01F5801130BD01F0004545F0FE414E
:1029700041F470014FF0000030BD7FEA645C1ABF83
:10298000194610467FEA655C1CBF0B46024650EABA
:10299000013406BF52EA033591EA030F41F40021E6
:1029A00030BD00BF90F0000F04BF0021704730B56C
:1029B0004FF4806404F132044FF000054FF0000141
:1029C00050E700BF90F0000F04BF0021704730B502
:1029D0004FF4806404F1320410F0004548BF4042D7
:1029E0004FF000013EE700BF42004FEAE2014FEA2C
:1029F00031014FEA02701FBF12F07F4393F07F4F07
:102A000081F06051704732F07F4208BF704793F009
:102A10007F4F04BF41F40021704730B54FF460741C
:102A200001F0004521F000411CE700BF50EA01021F
:102A300008BF704730B54FF000050AE050EA0102C8
:102A400008BF704730B511F0004502D5404261EB38
:102A500041014FF4806404F132045FEA915C3FF479
:102A6000D8AE4FF003025FEADC0C18BF03325FEA16
:102A7000DC0C18BF033202EBDC02C2F1200300FAC7
:102A800003FC20FA02F001FA03FE40EA0E0021FAEC
:102A900002F11444BDE600BF70B54FF0FF0C4CF4DA
:102AA000E06C1CEA11541DBF1CEA135594EA0C0F8C
:102AB00095EA0C0F00F0DEF82C4481EA030621EAC7
:102AC0004C5123EA4C5350EA013518BF52EA033502
:102AD00041F4801143F4801338D0A0FB02CE4FF0B4
:102AE0000005E1FB02E506F00042E0FB03E54FF0E4
:102AF0000006E1FB03569CF0000F18BF4EF0010EDC
:102B0000A4F1FF04B6F5007F64F5407404D25FEAD7
:102B10004E0E6D4146EB060642EAC62141EA55518A
:102B20004FEAC52040EA5E504FEACE2EB4F1FD0CCC
:102B300088BFBCF5E06F1ED8BEF1004F08BF5FEA4A
:102B4000500E50F1000041EB045170BD06F00046FC
:102B500046EA010140EA020081EA0301B4EB5C04A9
:102B6000C2BFD4EB0C0541EA045170BD41F48011A1
:102B70004FF0000E013C00F3AB8014F1360FDEBFC6
:102B8000002001F0004170BDC4F10004203C35DAA2
:102B90000C341BDC04F11404C4F1200500FA05F325
:102BA00020FA04F001FA05F240EA020001F00042C6
:102BB00021F0004110EBD37021FA04F642EB06013C
:102BC0005EEA430E08BF20EAD37070BDC4F10C0466
:102BD000C4F1200500FA04F320FA05F001FA04F22A
:102BE00040EA020001F0004110EBD37041F1000116
:102BF0005EEA430E08BF20EAD37070BDC4F1200521
:102C000000FA05F24EEA020E20FA04F301FA05F288
:102C100043EA020321FA04F001F0004121FA04F230
:102C200020EA020000EBD3705EEA430E08BF20EA00
:102C3000D37070BD94F0000F0FD101F0004640003A
:102C400041EB010111F4801F08BF013CF7D041EABC
:102C5000060195F0000F18BF704703F000465200C0
:102C600043EB030313F4801F08BF013DF7D043EA91
:102C70000603704794EA0C0F0CEA135518BF95EA47
:102C80000C0F0CD050EA410618BF52EA4306D1D1CE
:102C900081EA030101F000414FF0000070BD50EAED
:102CA000410606BF1046194652EA430619D094EA77
:102CB0000C0F02D150EA013613D195EA0C0F05D161
:102CC00052EA03361CBF104619460AD181EA0301B5
:102CD00001F0004141F0FE4141F470014FF000006D
:102CE00070BD41F0FE4141F4780170BD70B54FF008
:102CF000FF0C4CF4E06C1CEA11541DBF1CEA135588
:102D000094EA0C0F95EA0C0F00F0A7F8A4EB050469
:102D100081EA030E52EA03354FEA013100F0888060
:102D20004FEA03334FF0805545EA131343EA126329
:102D30004FEA022245EA111545EA10654FEA0026DE
:102D40000EF000419D4208BF964244F1FD0404F597
:102D5000407402D25B084FEA3202B61A65EB0305F3
:102D60005B084FEA32024FF480104FF4002CB6EBB0
:102D7000020E75EB030E22BFB61A754640EA0C0030
:102D80005B084FEA3202B6EB020E75EB030E22BF70
:102D9000B61A754640EA5C005B084FEA3202B6EBB1
:102DA000020E75EB030E22BFB61A754640EA9C0070
:102DB0005B084FEA3202B6EB020E75EB030E22BF40
:102DC000B61A754640EADC0055EA060E18D04FEAFE
:102DD000051545EA16754FEA06164FEAC30343EA9E
:102DE00052734FEAC2025FEA1C1CC0D111F4801F6B
:102DF0000BD141EA00014FF000004FF0004CB6E764
:102E000011F4801F04BF01430020B4F1FD0C88BF02
:102E1000BCF5E06F3FF6AFAEB5EB030C04BFB6EB0D
:102E2000020C5FEA500C50F1000041EB045170BD00
:102E30000EF0004E4EEA113114EB5C04C2BFD4EB2D
:102E40000C0541EA045170BD41F480114FF0000EB1
:102E5000013C90E645EA060E8DE60CEA135594EA2D
:102E60000C0F08BF95EA0C0F3FF43BAF94EA0C0F30
:102E70000AD150EA01347FF434AF95EA0C0F7FF4A5
:102E800025AF104619462CE795EA0C0F06D152EAF9
:102E900003353FF4FDAE1046194622E750EA4106DD
:102EA00018BF52EA43067FF4C5AE50EA41047FF4EE
:102EB0000DAF52EA43057FF4EBAE12E74FF0FF3C53
:102EC00006E000BF4FF0010C02E000BF4FF0010C24
:102ED0004DF804CD4FEA410C7FEA6C5C4FEA430C9D
:102EE00018BF7FEA6C5C1BD001B050EA410C0CBFEC
:102EF00052EA430C91EA030F02BF90EA020F00204E
:102F0000704710F1000F91EA030F58BF994208BFB4
:102F100090422CBFD8176FEAE37040F00100704771
:102F20004FEA410C7FEA6C5C02D150EA013C07D1C8
:102F30004FEA430C7FEA6C5CD6D152EA033CD3D013
:102F40005DF8040B704700BF8446104662468C460D
:102F50001946634600E000BF01B5FFF7B7FF002840
:102F600048BF10F1000F01BD4DF808EDFFF7F4FF69
:102F70000CBF012000205DF808FB00BF4DF808EDF4
:102F8000FFF7EAFF34BF012000205DF808FB00BF17
:102F90004DF808EDFFF7E0FF94BF012000205DF839
:102FA00008FB00BF4DF808EDFFF7CEFF94BF0120EE
:102FB00000205DF808FB00BF4DF808EDFFF7C4FFE7
:102FC00034BF012000205DF808FB00BF4FEA41023A
:102FD00012F5001215D211D56FF47873B3EB62526B
:102FE00012D94FEAC12343F0004343EA505311F092
:102FF000004F23FA02F018BF404270474FF0000024
:10300000704750EA013005D111F0004008BF6FF061
:10301000004070474FF00000704700BF4FEA410288
:10302000B2F1E04324BFB3F5001CDCF1FE5C0DD926
:1030300001F0004C4FEAC0024CEA5070B2F1004F70
:1030400040EB830008BF20F00100704711F0804F73
:1030500021D113F13872BCBF01F00040704741F438
:1030600080114FEA5252C2F11802C2F1200C10FA3C
:103070000CF320FA02F018BF40F001004FEAC12320
:103080004FEAD32303FA0CFC40EA0C0023FA02F3C4
:103090004FEA4303CCE77FEA625307D150EA01339A
:1030A0001EBF4FF0FE4040F44000704701F000406A
:1030B00040F0FE4040F40000704700BF80F0004048
:1030C00002E000BF81F0004142001FBF5FEA410300
:1030D00092EA030F7FEA226C7FEA236C6AD04FEA00
:1030E0001262D2EB1363C1BFD21841404840414045
:1030F000B8BF5B42192B88BF704710F0004F40F4F7
:10310000000020F07F4018BF404211F0004F41F412
:10311000000121F07F4118BF494292EA030F3FD0DE
:10312000A2F1010241FA03FC10EB0C00C3F12003F1
:1031300001FA03F100F0004302D5494260EB400080
:10314000B0F5000F13D3B0F1807F06D340084FEAEB
:10315000310102F10102FE2A51D2B1F1004F40EBE0
:10316000C25008BF20F0010040EA03007047490048
:1031700040EB0000013A28BFB0F5000FEDD2B0FAE5
:1031800080FCACF1080CB2EB0C0200FA0CF0AABF08
:1031900000EBC25052421843BCBFD04018437047A6
:1031A00092F0000F81F4000106BF80F400000132AC
:1031B000013BB5E74FEA41037FEA226C18BF7FEA83
:1031C000236C21D092EA030F04D092F0000F08BFC5
:1031D0000846704790EA010F1CBF0020704712F0AC
:1031E0007F4F04D1400028BF40F00040704712F1EB
:1031F00000723CBF00F50000704700F0004343F050
:10320000FE4040F4000070477FEA226216BF084685
:103210007FEA23630146420206BF5FEA412390EA48
:10322000010F40F4800070474FF0000304E000BF3E
:1032300010F0004348BF40425FEA000C08BF7047EF
:1032400043F0964301464FF000001CE050EA0102B3
:1032500008BF70474FF000030AE000BF50EA0102C8
:1032600008BF704711F0004302D5404261EB4101B5
:103270005FEA010C02BF84460146002043F0B643DA
:1032800008BFA3F18053A3F50003BCFA8CF2083AFF
:10329000A3EBC25310DB01FA02FC634400FA02FC08
:1032A000C2F12002BCF1004F20FA02F243EB02000F
:1032B00008BF20F00100704702F1200201FA02FC71
:1032C000C2F1200250EA4C0021FA02F243EB020064
:1032D00008BF20EADC7070474FF0FF0C1CEAD052A8
:1032E0001EBF1CEAD15392EA0C0F93EA0C0F6FD069
:1032F0001A4480EA010C400218BF5FEA41211ED047
:103300004FF0006343EA501043EA5111A0FB013132
:103310000CF00040B1F5000F3EBF490041EAD37107
:103320005B0040EA010062F17F02FD2A1DD8B3F183
:10333000004F40EBC25008BF20F00100704790F0F2
:10334000000F0CF0004C08BF49024CEA502040EA44
:1033500051207F3AC2BFD2F1FF0340EAC25070470A
:1033600040F400004FF00003013A5DDC12F1190F48
:10337000DCBF00F000407047C2F10002410021FABA
:1033800002F1C2F1200200FA02FC5FEA310040F1D2
:10339000000053EA4C0308BF20EADC70704792F04B
:1033A000000F00F0004C02BF400010F4000F013A83
:1033B000F9D040EA0C0093F0000F01F0004C02BF7E
:1033C000490011F4000F013BF9D041EA0C018FE7ED
:1033D0000CEAD15392EA0C0F18BF93EA0C0F0AD0F3
:1033E00030F0004C18BF31F0004CD8D180EA010019
:1033F00000F00040704790F0000F17BF90F0004FB2
:10340000084691F0000F91F0004F14D092EA0C0F93
:1034100001D142020FD193EA0C0F03D14B0218BF26
:10342000084608D180EA010000F0004040F0FE406C
:1034300040F40000704740F0FE4040F44000704708
:103440004FF0FF0C1CEAD0521EBF1CEAD15392EA87
:103450000C0F93EA0C0F69D0A2EB030280EA010C77
:1034600049024FEA402037D04FF0805343EA111110
:1034700043EA10130CF000408B4238BF5B0042F16E
:103480007D024FF4000C8B4224BF5B1A40EA0C0013
:10349000B3EB510F24BFA3EB510340EA5C00B3EB45
:1034A000910F24BFA3EB910340EA9C00B3EBD10F33
:1034B00024BFA3EBD10340EADC001B0118BF5FEA85
:1034C0001C1CE0D1FD2A3FF650AF8B4240EBC250AE
:1034D00008BF20F0010070470CF0004C4CEA50206F
:1034E0007F32C2BFD2F1FF0340EAC250704740F4BE
:1034F00000004FF00003013A37E792F0000F00F0B0
:10350000004C02BF400010F4000F013AF9D040EA2D
:103510000C0093F0000F01F0004C02BF490011F4C1
:10352000000F013BF9D041EA0C0195E70CEAD153B9
:1035300092EA0C0F08D142027FF47DAF93EA0C0FA0
:103540007FF470AF084676E793EA0C0F04D14B0284
:103550003FF44CAF08466EE730F0004C18BF31F036
:10356000004CCAD130F000427FF45CAF31F0004330
:103570007FF43CAF5FE700BF4FF0FF3C06E000BFC9
:103580004FF0010C02E000BF4FF0010C4DF804CDEC
:103590004FEA40024FEA41037FEA226C18BF7FEAFC
:1035A000236C11D001B052EA530C18BF90EA010FFE
:1035B00058BFB2EB030088BFC81738BF6FEAE1708D
:1035C00018BF40F0010070477FEA226C02D15FEA29
:1035D000402C05D17FEA236CE4D15FEA412CE1D095
:1035E0005DF8040B704700BF844608466146FFE75C
:1035F0000FB5FFF7C9FF002848BF10F1000F0FBD3E
:103600004DF808EDFFF7F4FF0CBF012000205DF836
:1036100008FB00BF4DF808EDFFF7EAFF34BF0120BB
:1036200000205DF808FB00BF4DF808EDFFF7E0FF54
:1036300094BF012000205DF808FB00BF4DF808EDA5
:10364000FFF7D2FF94BF012000205DF808FB00BF08
:103650004DF808EDFFF7C8FF34BF012000205DF8EA
:1036600008FB00BF42000ED2B2F1FE4F0BD34FF069
:103670009E03B3EB126209D44FEA002343F00043E8
:1036800023FA02F070474FF00000704712F1610F0B
:1036900001D1420202D14FF0FF3070474FF00000DD
:1036A000704700BF7BB972B90029BEBF00204FF040
:1036B000004106E008BF00281CBF6FF000414FF03A
:1036C000FF3000F057B8ADF1080C6DE904CE0029C9
:1036D00009DB002B1ADB00F0FFF8DDF804E0DDE980
:1036E000022304B07047404261EB4101002B1BDB19
:1036F00000F0F2F8DDF804E0DDE9022304B0404216
:1037000061EB4101524263EB43037047524263EB6A
:10371000430300F0E1F8DDF804E0DDE9022304B042
:10372000404261EB41017047524263EB430300F0BA
:10373000D3F8DDF804E0DDE9022304B0524263EB84
:103740004303704753B94AB9002908BF00281CBF7A
:103750004FF0FF314FF0FF3000F00CB8ADF1080C26
:103760006DE904CE00F0B8F8DDF804E0DDE90223ED
:1037700004B07047704700BF844641EA000313F06D
:1037800003036DD1403A41D351F8043B40F8043B68
:1037900051F8043B40F8043B51F8043B40F8043B2B
:1037A00051F8043B40F8043B51F8043B40F8043B1B
:1037B00051F8043B40F8043B51F8043B40F8043B0B
:1037C00051F8043B40F8043B51F8043B40F8043BFB
:1037D00051F8043B40F8043B51F8043B40F8043BEB
:1037E00051F8043B40F8043B51F8043B40F8043BDB
:1037F00051F8043B40F8043B51F8043B40F8043BCB
:1038000051F8043B40F8043B403ABDD2303211D36A
:1038100051F8043B40F8043B51F8043B40F8043BAA
:1038200051F8043B40F8043B51F8043B40F8043B9A
:10383000103AEDD20C3205D351F8043B40F8043B6A
:10384000043AF9D2043208D0D2071CBF11F8013B68
:1038500000F8013B01D30B8803806046704700BF2E
:10386000082A13D38B078DD010F003038AD0C3F13D
:103870000403D21ADB071CBF11F8013B00F8013B1F
:1038800080D331F8023B20F8023B7BE7043AD9D3DE
:10389000013A11F8013B00F8013BF9D20B780370B3
:1038A0004B7843708B788370604670474FEA410CC9
:1038B0007FEA6C5C02D150EA013C0AD14FEA430C2A
:1038C0007FEA6C5C02D152EA033C02D14FF0000067
:1038D00070474FF0010070472DE9F04786468C464F
:1038E0000846089E154674461946002B40F0C280D3
:1038F0008542B2FA82F245D94AB1C2F1200300FAF8
:1039000002FC2EFA03F3954043EA0C0C94404FEA74
:10391000154EA8B2BCFBFEF8230C0EFB18CC08FB1E
:1039200000F943EA0C43994528D9EB1808F1FF3711
:1039300004D2994502D9A8F102072B44A3EB09034D
:10394000A4B2B3FBFEFC0EFB1C330CFB00F044EAFC
:103950000344A04214D92C190CF1FF3304D2A04225
:1039600002D9ACF102032C44241A43EA07401EB1E9
:10397000D440002334607360BDE8F0874746DDE73C
:103980006346F1E792BB431B01214FEA154EAFB2EC
:10399000B3FBFEFC200C0EFB1C330CFB07F840EACB
:1039A0000343984562D9EB180CF1FF3004D29845D7
:1039B00002D9ACF102002B44A3EB0803A4B2B3FB81
:1039C000FEFC0EFB1C330CFB07F744EA0344A74242
:1039D0004ED92C190CF1FF3304D2A74202D9ACF115
:1039E00002032C44E41B43EA0040C0E7C2F1200379
:1039F00020FA03F1954090402EFA03F303434FEA77
:103A0000154EAFB2B1FBFEFC0EFB1C10190C0CFBEB
:103A100007F841EA0041884504FA02F422D96918FE
:103A20000CF1FF3004D2884502D9ACF102002944E0
:103A3000A1EB08019BB2B1FBFEFC0EFB1C110CFBC1
:103A400007F743EA01439F420ED9EB180CF1FF310F
:103A500004D29F4202D9ACF102012B44DB1B41EAA4
:103A6000004192E76046E3E76146F7E76046A3E777
:103A70006346B7E7834206D916B9002108467BE7BB
:103A8000C6E900E0F9E7B3FA83F78FB9834201D3BF
:103A9000724508D8BEEB020460EB030301209C468C
:103AA0001EB9002168E73846FAE7C6E9004CF8E796
:103AB000C7F1200CBB4022FA0CF41C432EFA0CF187
:103AC00020FA0CF3B84001434FEA14490EFA07F507
:103AD000B3FBF9F81FFA84FE09FB18300B0C08FB46
:103AE0000EFA43EA00439A4502FA07F240D9E31876
:103AF00008F1FF3004D29A4502D9A8F1020023440C
:103B0000A3EB0A0389B2B3FBF9F809FB183308FBEE
:103B10000EFE41EA03418E452CD9611808F1FF33AE
:103B200004D28E4502D9A8F10203214443EA0040A1
:103B3000A0FB0298A1EB0E014145CE46434602D3BD
:103B400006D14D4504D2B9EB020E68EB04030138EF
:103B5000002EA6D0B5EB0E0261EB030101FA0CFCBE
:103B600022FA07F34CEA0303F940C6E9003198E76B
:103B70004046C5E74346D9E72DE9F04F89B00D46E9
:103B80008768D0E90063039383890593B36806AA25
:103B9000039930465B689847002831DB4FF0FF3AC5
:103BA000DFF87C90DDE9064BA7FB042307FB0B380D
:103BB00004920498414618A3D3E90023FFF7C2FDFD
:103BC000049B07469A4579EB08031CD3A5FB0443E5
:103BD00005FB0B35204610A3D3E900232946FFF748
:103BE000B1FDA245034679EB05050CD38742B268C7
:103BF0000CD3059930460091039914683A46A047C2
:103C000009B0BDE8F08F6FF08500F9E76FF015009F
:103C1000F6E700BFAFF3008000CA9A3B0000000047
:103C2000FFC99A3B000000002DE9F74FDFF8D8A14B
:103C30004CF25030002113F038FC0FF2B419D9E9DE
:103C40000089724B72491868724EFFF745FB4FF0BE
:103C5000FF3207464FF0FF33504613F022FC7069E5
:103C6000FEF7B0FE42464B46DFF8ACB1FFF73EF838
:103C700004460D463069FEF7A5FE02460B46204677
:103C80002946FEF753FD0022644BFEF705FFFFF7C0
:103C9000C5F90446504613F006FC4FF0FF324FF0D2
:103CA000FF335F4813F0FDFB5E4B1868FEF79CFE88
:103CB00051A3D3E90023FEF7EFFEFFF7AFF9064665
:103CC000574813F0F0FB21463846574CFFF7FAF9F6
:103CD000054620682946FFF7F7F9544B206018681D
:103CE0002168FFF7F9FADBF8001004462846FFF7D1
:103CF000E9F9FEF779FE42A3D3E90023FEF7F6FFC8
:103D0000FFF78CF94A4B4B4A186010681968FFF7A7
:103D1000E3FA49490746CBF800502046FFF798FCE4
:103D2000002835D145492046FFF774FC002831D1E1
:103D3000434B2946434D1868FFF7CEFA2146FFF75B
:103D4000C3F93946404FFFF7BFF900210446286800
:103D5000FFF77EFCD7F800B03C4BE8B101221A60B7
:103D600039682046FFF7B0F939490446FFF770FC7F
:103D7000D0B938492046FFF74DFC002834D1002146
:103D80002046FFF75BFC80B904F1004030490EE0AB
:103D9000294CCDE7294CCBE74FF0FF320BF1004B1C
:103DA0001A60C7F800B0DBE7294C29492046FFF725
:103DB00047FB2949FFF790FAFFF754FC274B18609F
:103DC0002868FEF711FE04460D463046FEF70CFE4D
:103DD00022462B46CDE90001214813F039FC0A2088
:103DE000002113F062FB2CE71A4CCDE7AFF3008003
:103DF0000000000080842E41176881166881A63F6C
:103E00007B14AE47E17A743F4CA9202010BB2020E0
:103E100000007A441CBB2020CCBA202000408F40F8
:103E200074A92020D4BA2020D0BA20209CA620201B
:103E3000C8BA202008BB202000002041000020C17B
:103E4000A0A620200CBB2020F8BA202098A6202075
:103E50000000C8420000C8C20050434704BB2020F5
:103E6000ADBD0160000000002DE9F74F0FF2D00B4F
:103E7000DBE900AB4CF25030002113F016FBDFF809
:103E8000D880DFF8D890D8F80000D9F80010FFF7F4
:103E900019F9334CFEF7A8FD52465B46FFF78CF844
:103EA000002849D001232F4F2F4E00252370D9F829
:103EB0000010D8F80000FFF705F9FEF795FD52460F
:103EC0005B46FFF75BF830B10023237064200021CC
:103ED00013F0EBFAD3E757F8043B40F69E7156F81F
:103EE000042B01350193214B1E481A6013F011FB7E
:103EF000FEF77AFD14A3D3E90023FEF7CDFD0022DF
:103F00001B4BFEF7C9FDFFF789F81A4B18600198A3
:103F1000FEF76AFD0EA3D3E90023FEF7E7FEFFF7E5
:103F20007DF8154B00211860642013F0BEFA40F6AE
:103F30009C739D42BBD1C9E72070C7E7AFF30080F7
:103F40009A9999999999C93F7B14AE47E17A743F40
:103F5000D4B004C383A0F03FF4BA2020F0BA2020EC
:103F600018D9202020682020B02920200CBB202038
:103F700000408F40F8BA202010BB20200000000035
:103F80002DE9F04FA04887B002F084F89F4B4FF026
:103F9000000A002118604CF2503013F086FA9B4B57
:103FA0009B4C1868214602F0B9F80546002840F0FD
:103FB00018814FF0FF324FF0FF33964813F071FA3B
:103FC000E068FEF7FFFC88A3D3E90023FEF78EFE2E
:103FD00006460F46A068FEF7F5FC02460B46304643
:103FE0003946FEF7A3FB82A3D3E90023FEF79CFB2F
:103FF000FFF714F807466069FEF7E4FC7AA3D3E9FB
:104000000023FEF773FE804689462069FEF7DAFC3E
:1040100002460B4640464946FEF788FB00224FF019
:104020008043FEF783FBFEF7F9FF06466068FEF764
:10403000C9FC6DA3D3E90023FEF758FE80468946EC
:104040002068FEF7BFFC02460B4640464946FEF795
:104050006DFB69A3D3E90023FEF766FBFEF7DEFFE5
:10406000FEF7C2FC00224FF080430EF04BFA804670
:1040700089463846FEF7B8FC00224FF080430EF028
:1040800041FA02460B4640464946FEF74FFB804642
:1040900089463046FEF7A8FC00224FF080430EF020
:1040A00031FA0B46024649464046DFF86C81FEF77E
:1040B0003DFB0EF0E5FA064656480F4613F0F3F9BD
:1040C000D8F8004040F2DB539C421ADC39463046B7
:1040D000FEF7A4FF01465046FEF7F4FF4F49FFF7F5
:1040E000FBF801465046FEF7EDFF4D4B824643F884
:1040F00024000134C8F800400A20002113F0D5F94B
:104100004DE740F2DC539C42F6D1DFF814812146A2
:10411000444F4046D8F800603D6013F0E4F9424B4C
:10412000214601904FF4FA721860404613F007FAE6
:10413000009501253D4B4446A8461860B146666887
:10414000AB46013549463046FFF764FA00283DD0BA
:10415000B8F1010F28D1009BABEB0303322B20DD1C
:104160002368032103A804960393A368059313F01F
:10417000A3F9FEF739FC804689460198FEF734FC26
:104180001FA3D3E90023FEF787FC02460B464046F7
:104190004946FEF711FF10B33B68CDF800B001337C
:1041A0003B604FF0000808E049463046FFF750FA00
:1041B000B0F1000818BF4FF0010840F2DB5304349F
:1041C0009D42BBD1144B00221A6095E74946304608
:1041D000FFF73EFA002818BF4FF00108EDE78046D0
:1041E000EBE707B0BDE8F08F0000000080842E41AF
:1041F0009A99999999992340333333333333E33F71
:10420000CDCCCCCCCCCCEC3F13BF016018BB202074
:1042100034BB202060A9202000BB20200AD7233CEB
:1042200064BB2020ECBA2020F4BA2020F0BA202071
:104230001F292DE9F84316464468036952D0202906
:1042400045D01E295AD15888FEF7BCFB2EA3D3E9CE
:104250000023FEF721FC0022334B04460D46FEF7F7
:104260008DFE00284DD12046294629A3D3E90023FD
:10427000FEF7A2FE002844D129462046FEF7A6FEFE
:104280000746FEF79FFB02460B4620462946FEF7EF
:104290004BFA21A3D3E90023FEF7FEFB0022224BB9
:1042A00080468946FEF76AFE58BB4046494618A339
:1042B000D3E90023FEF780FE044610BB4046494682
:1042C0003760FEF783FE70602046BDE8F8839B8868
:1042D0001420228953435843FEF774FB10A3D3E9FB
:1042E0000023B6E7DA88D10B17BF52420122DA80E9
:1042F0004FF0FF32DB8820895343ECE76FF08500F5
:10430000E3E76FF02100E0E7FCA9F1D24D62703FD6
:104310000000C0FFFFFFDF410000000080842E414D
:10432000F168E388B5F8E43E0000E0C10000000059
:104330002DE9F04F23F000471D469A4657EA020345
:1043400093B000F0368389468046D54829F0004670
:10435000864214461146CB464346324600F223833A
:1043600000F02C83874200F21E8300F0CE83BBF165
:10437000000FC0F27983002900F0388300210091FA
:1043800040464946049302920EF06AFA049B029A50
:10439000002B00F08D834FEADB73013B0A93C14B86
:1043A0009F4200F2E783BE4B0BEA0303002B40F071
:1043B00098840022BC4BFEF76FFB6FF034060A4670
:1043C0001315A3F2FF339F19B84B0B97C2F31302D7
:1043D00042F07F569A4246F4401607DDB44B9A42AB
:1043E00040F3EC8401370B97A6F5801600220023DA
:1043F000CDE90823CDE91023AE4B0022CDE90623F9
:104400000027DDE9062331468246FEF78DF9B346E3
:10441000DDE906238046894650463146CDE90CAB9E
:10442000FEF784F902460B460020A249FEF75EFC27
:104430000A460146CDE90E12134649460246404659
:10444000FEF72AFB0A4683469446CDE902BC4FF0AC
:10445000000CCDF808C07610DDE902AB46F000563E
:10446000014606F50023CDE904120020D9190646BD
:104470000F4602460B4650465946FEF70DFB0246D4
:104480000B4640464946FEF74FF9DDE906238046D4
:10449000894630463946FEF747F902460B46DDE9C4
:1044A0000C01FEF741F952465B46FEF7F5FA02466B
:1044B0000B4640464946FEF737F9DDE90E23FEF785
:1044C000EBFADDE90467CDE9060132463B463046AA
:1044D0003946FEF7E1FA60A3D3E9002306460F460A
:1044E000FEF7DAFA5EA3D3E90023FEF71FF932469E
:1044F0003B46FEF7D1FA5CA3D3E90023FEF716F999
:1045000032463B46FEF7C8FA59A3D3E90023FEF72B
:104510000DF932463B46FEF7BFFA57A3D3E9002315
:10452000FEF704F932463B46FEF7B6FA54A3D3E948
:104530000023FEF7FBF83246804689463B4630466C
:104540003946FEF7A9FA02460B4640464946FEF7B1
:10455000A3FA524606460F465B46DDE90401FEF724
:10456000E5F8DDE90623FEF797FA32463B46FEF70B
:10457000DDF85246804689465B4650465946FEF76E
:104580008BFA02460B46CDE90C234B4B0022FEF77B
:10459000CDF842464B46FEF7C9F800260F46324694
:1045A0003B4650465946FEF777FA434B82468B46C8
:1045B000002230463946FEF7B7F8DDE90C23FEF756
:1045C000B3F802460B4640464946FEF7ADF8DDE932
:1045D0000423FEF761FA3246804689463B46DDE910
:1045E0000601FEF759FA02460B4640464946FEF7D9
:1045F0009DF88046894602460B4650465946FEF7CE
:1046000095F8002620A3D3E9002330460F46FEF795
:1046100043FA52465B4682468B4630463946FEF7A1
:1046200083F802460B4640464946FEF77DF818A33C
:10463000D3E90023FEF730FA17A3D3E9002380461D
:10464000894630463946FEF727FA02460B46404671
:10465000494633E0AFF30080EF4E454A287ECA3F1B
:1046600065DBC9934A86CD3F01411DA96074D13FE6
:104670004D268F515555D53FFFAB6FDBB66DDB3FF8
:10468000033333333333E33F000000E009C7EE3F29
:10469000FD033ADC09C7EE3FF5015B14E02F3EBE97
:1046A0000000F07F0000E041000040438E980300CE
:1046B00079B60B000000F03F00000840FEF736F826
:1046C000DDE91023FEF732F880460B988946FEF7A5
:1046D00079F9424606460F464B4650465946CDE9C3
:1046E00004ABFEF723F8DDE90823FEF71FF8324696
:1046F0003B46FEF71BF8002032463B4682468B467F
:10470000FEF712F8DDE90823FEF70EF8DDE90423D1
:10471000FEF70AF802460B4640464946FEF704F803
:10472000CDE90201009B0A9A013B134314BFC84B19
:10473000C84B0022CDE904230023CDE900450093B6
:10474000DDE90089204642464B462946FDF7ECFF4D
:104750005B465246FEF7A0F9224606460F462B4618
:10476000DDE90201FEF798F902460B46304639466C
:10477000FDF7DCFF424604460D464B46594650467F
:10478000FEF78AF90B46024606460F4620462946A2
:10479000FDF7CCFFB04B9942A046A94604460D4612
:1047A0008B4640F30C8201F13F4303F5E0030343E2
:1047B00040F0A28294A3D3E9002340464946FDF786
:1047C000B5FF3246CDE900013B4620462946FDF7BC
:1047D000ABFF02460B46DDE90001FEF7EDFB0028CA
:1047E00040F08A824FF400715944C1F30A539B4848
:1047F000A3F2FF33C1F31302184142F48012C3F154
:10480000140342FA03FABBF1000F00EA01034FF070
:10481000000230463946B8BFCAF1000AFDF784FFEE
:1048200002460B4606460F4640464946FDF77EFFC8
:104830004FEA0A5B0D46002475A3D3E90023204606
:104840002946FEF729F93246CDE900013B462046CC
:104850002946FDF769FF02460B4640464946FDF7EB
:1048600063FF6DA3D3E90023FEF716F96CA3D3E928
:10487000002306460F4620462946FEF70DF902465C
:104880000B4630463946FDF751FFDDE90089064603
:104890000F4602460B4640464946FDF747FF424653
:1048A0004B4604460D46FDF73FFF02460B46304699
:1048B0003946FDF739FF2246804689462B46204679
:1048C0002946FEF7E9F858A3D3E9002306460F4628
:1048D000FEF7E2F856A3D3E90023FDF725FF3246A1
:1048E0003B46FEF7D9F854A3D3E90023FDF71EFF9A
:1048F00032463B46FEF7D0F851A3D3E90023FDF73B
:1049000013FF32463B46FEF7C7F84FA3D3E9002317
:10491000FDF70CFF32463B46FEF7BEF802460B465B
:1049200020462946FDF700FF06460F4602460B4685
:1049300020462946FEF7B0F80022CDE900014FF0ED
:10494000804330463946FDF7EFFE02460B46DDE96F
:104950000001FEF7CBF9424606460F464B4620467D
:104960002946FEF799F842464B46FDF7DFFE024620
:104970000B4630463946FDF7D7FE22462B46FDF75B
:10498000D3FE02460B4600203149FDF7CDFE0C4612
:104990005C44B4F5801FC0F223822146DDE9042384
:1049A000FEF77AF807E006F1404606F580161E434A
:1049B00007D12749002013B0BDE8F08F0BB9B742EB
:1049C00005D9274813B0BDE8F04F0DF053BF7FF471
:1049D000CEAC002CF5D1234B9E4240F28581BAF13A
:1049E000000FC0F2DB8020462946E4E718488742E2
:1049F00040F0D780BAF1000FC0F2CE814046494660
:104A0000D9E700BFAFF30080FE822B654715973CC6
:104A100000000000432EE63FEF39FAFE422EE63F4B
:104A2000396CA80C615C20BED0A4BE726937663EAA
:104A3000F16BD2C541BDBB3E2CDE25AF6A56113F9E
:104A400093BDBE166CC1663F3E5555555555C53F85
:104A50000000F03F0000F0BFFFFF8F400000F0FFBC
:104A600090BA0160FFFFEF3FBF48874270D8BF4850
:104A700087420DD93815A0F2FF30142840F3498140
:104A8000C0F1340021FA00FC0CFA00F088422AD070
:104A9000002940F0B780BAF1804F2FD000914046F6
:104AA0004946049302920DF0DBFE049B029A2BB957
:104AB000AF4B2BF0404C9C4532D08EB3DDF800C09C
:104AC0004FEADB73013B0A935CEA03037FF467ACB4
:104AD00042464B4610461946FDF726FE02460B4657
:104AE000FEF704F967E70CF0010CCCF1020000902E
:104AF00000297FF445ACBAF1804FD0D142464B46F5
:104B000040464946FDF7C8FF55E7002C7FF44BAF00
:104B100006F1404202F580121A433FF44AAF5AE7C9
:104B2000BAF1000F05DA02460B4600209049FEF765
:104B3000DDF8BBF1000FBFF63EAF009B06F140462B
:104B400006F580161E4340F0318102460B46C1E750
:104B5000002900F0498140464946029300920DF039
:104B60007FFE029B009A002B00F01D810223009320
:104B700000230A937F4B9F427C4B4FD99E420AD918
:104B8000BAF1000F0ADD6CA3D3E9002310461946E1
:104B9000FDF782FF0FE7BAF1000FF4DB00200021E0
:104BA00009E7BAF1804FA9D0734882457FF476AF08
:104BB0004046494613B0BDE8F04F0DF08FBDDFF819
:104BC000BCC121F00043634540F2DE806C4B0B44D6
:104BD00003430AD132463B46FDF7A6FD42464B460B
:104BE000FEF7E0F900283FF4FDAD55A3D3E900231B
:104BF000DDE90401FDF750FF51A3D3E90023FDF7E0
:104C00004BFFD8E640464946009302920DF028FE3D
:104C1000009B002B7FF45CAF029A49E79E42BAD317
:104C2000534B9E42ACD8524B0022FDF77DFD46A36C
:104C3000D3E9002306460F46FDF72EFF44A3D3E930
:104C400000238046894630463946FDF725FF4D4B07
:104C500082468B46002230463946FDF71DFF02464C
:104C60000B463DA1D1E90001FDF75EFD32463B4612
:104C7000FDF712FF02460B4600203F49FDF754FDA9
:104C80003246CDE902013B4630463946FDF704FF86
:104C900002460B46DDE90201FDF7FEFE30A3D3E933
:104CA0000023FDF7F9FE02460B4650465946FDF734
:104CB0003BFD02460B4606460F4640464946FDF779
:104CC00035FD002042464B4682468B46FDF72CFDC3
:104CD00002460B4630463946FDF726FDCDE9020176
:104CE00020E50026FFF76CBBBAF1000FBFF656AF08
:104CF000204605F100415EE60FA3D3E90023DDE97C
:104D00000401FDF7C9FE0CA3D3E90023FDF7C4FE9F
:104D100051E600297FF476AFC0F1140047FA00FC99
:104D20000CFA00F0B84266D0114887423FF462AEF8
:104D3000B1E600BFAFF300809C7500883CE4377E8D
:104D400059F3F8C21F6EA501000000604715F73F38
:104D500044DF5DF80BAE543E555555555555D53F7E
:104D6000FE822B654715F73FFFFF3F43FFFFEF3FF5
:104D70000000F03F0000F0430000E03FFFCB904018
:104D800000346F3F0000D03F294A934241D8DDE90B
:104D90000023934692464EE542464B462549002065
:104DA000FDF7A4FF07E60223009381E6009B012B99
:104DB0007FF401AE01F100431946FCE518A3D3E9E5
:104DC0000023CDE9082318A3D3E90023CDE910235C
:104DD000194B0022CDE906234FF48027FFF711BBC2
:104DE000524600F02DF8D9E5BAF1804F3FF486AE77
:104DF0000221009153E60F498F423FF4FBADBAF117
:104E0000804F3FF47BAE0CF0010CCCF1020100911D
:104E100045E61B15A3F2FE334FF480111941E3E47C
:104E20000000004003B8E23F06D0CF43EBFD4C3E0C
:104E30000000E03F0000F03F0000F83F00000000ED
:104E4000F8B5C1F30A5604460D4617460B463EBB5D
:104E500021F00043034322D02B4B0022FDF71CFE20
:104E60002A4B9F4204460D4637DBC1F30A560B46D8
:104E7000363EBA1940F2FE718A4219DC002A32DC51
:104E800012F1350F20DB23F0FF43363223F4E00329
:104E900043EA025120461E4B0022FDF7FDFDF8BDFE
:104EA00040F2FF729642E4D10246FDF73FFCF8BDA6
:104EB00011A3D3E90023ED0F1C4665F3DF742146EF
:104EC0001448FDF7E9FDF8BD05F0004343F0D27149
:104ED00041F4B731104841F01F0109A3D3E9002381
:104EE000FDF7DAFDF8BD23F0FF4323F4E00320468D
:104EF00043EA0251F8BD00BF9C7500883CE4377E50
:104F000059F3F8C21F6EA50100005043B03CFFFFEB
:104F10000000903C9C75008859F3F8C20000000026
:104F20002DE9F04F016C9FB016461F46CDE904678E
:104F30002B9D039049B1426C4A6001239340044683
:104F40008B6011F0B1FB00232364B7F10009B4BFFB
:104F5000012300232B60764BBCBF29F00049CDF81C
:104F6000149033EA090300F0AA80DDE9043400223A
:104F7000184621460023CDE90801FDF7F5FF8046DC
:104F800068B12A9A012313602C9B13B12C9A694BA8
:104F90001360694B0A930A981FB0BDE8F08F1CABF1
:104FA00001931DAB00930398DDE9082311F0B0FED7
:104FB0005FEA1955824640F09880DDE91C8545443A
:104FC00005F23243202B40F38383C3F1400309FAF7
:104FD00003F905F2124326FA03F349EA0300FDF749
:104FE000E1FC0123013DA1F1F8711193534B002223
:104FF000FDF79AFB48A3D3E90023FDF74DFD48A335
:10500000D3E90023FDF792FB064628460F46FDF73D
:10501000D9FC45A3D3E90023FDF73EFD02460B462C
:1050200030463946FDF782FB06460F46FDF7CEFFB8
:1050300000228346002330463946FDF79FFF0028B3
:1050400040F01A83A8EB0508BBF1160F08F1FF34F6
:1050500000F28B813A4D05EBCB05D5E90023DDE964
:105060000801FDF78BFF002870D00023002C0BF106
:10507000FF3B1093C0F27E8100230B93BBF1000F26
:105080006ADA0B9BA3EB0B030B93CBF10003CDE987
:105090000EB3289B092B4FF0000B65D8052B40F36E
:1050A0001C83043B28930025289B023B032B00F222
:1050B0002386DFE813F060045D04540438042A9A60
:1050C000C9F3130942F20F7359EA060913601CD1A0
:1050D0002C9B002B00F02B861A4B0A9308332C9A3A
:1050E0000A9813601FB0BDE8F08FDDE90812C2F323
:1050F0001303084643F07F51CDF84480A5F2FF35F5
:10510000DDF8708041F4401170E72C9B002B40F0DB
:10511000E7830D4B0A933EE761436F63A787D23F56
:10512000B3C8608B288AC63FFB799F501344D33F96
:105130000000F07F29BC016028BC01600000F83F3E
:1051400028A101604CBC016058BC0160B8F1000F9F
:1051500040F3608410900B9000230F93289BCDF8B0
:1051600038B0092B5C4499D90023CDE928330125B7
:105170004FF0FF330C950693039B00215964069B67
:105180001893039811F06AFA0A90002800F0BD8580
:10519000039B0A9A1A64069B0E2B00F21581002DC0
:1051A00000F012810E9A002A40F33B84B24D02F0C7
:1051B0000F0305EBC303D3E9008913461511DA0584
:1051C00040F1FA83AD4BDDE90801D3E90823FDF78F
:1051D0008DFDCDE9120105F00F0503277DB1A74E26
:1051E000EB0708D540464946D6E90023FDF754FCB5
:1051F0000137804689466D1006F10806F0D1424617
:105200004B46DDE91201FDF771FD80468946109B92
:1052100043B19B4B002240464946FDF7AFFE0028B4
:1052200040F0F1843846FDF7CDFB42464B46FDF792
:1052300033FC944B0022FDF779FA069B0646A1F158
:105240005077002B00F0A9800E9B1993069B1293B8
:105250000A9B894D49464046CDE914675E1CFDF71F
:10526000B5FE129905EBC10353E902120746CDE9D9
:105270001612FDF7A7FB02460B4640464946FDF7CE
:1052800053FA89460C993037DDE916238046FFB280
:10529000002900F053847C490020FDF727FDDDE95B
:1052A0001423FDF741FA0A9D02460B46CDE914236B
:1052B0002F7042464B46FDF77FFE002840F0978452
:1052C000CDE91AB4CDF858A0129DDDE914AB002742
:1052D0002AE00137AF4280F2DE846C4B50465946DB
:1052E0000022FDF7D9FB694B002282468B464046DF
:1052F0004946FDF7D1FB89468046FDF767FE044627
:10530000FDF760FB02460B4640464946FDF70CFAA6
:10531000303406F8014B52465B4680468946FDF71D
:105320002DFE002840F0B48442464B4654490020EC
:10533000FDF7FAF952465B46FDF720FE0028C8D07B
:10534000199BDDF858A00A9A374603F1010802E0DC
:10535000974200F07C843E4617F8013D392BF7D088
:105360000133DBB23B70454675E10123002C1093FD
:10537000BFF682AEC8F101030B9300247EE63846E7
:10538000FDF720FB42464B46FDF786FB3D4B0022D6
:10539000FDF7CCF90646A1F150773D4B4046494612
:1053A0000022FDF7C1F932463B4680468946FDF7AB
:1053B00003FE002840F05A8440464946324607F131
:1053C0000043FDF7DBFD28BB1D9B002BC0F2928044
:1053D0000E9A0E2A00F38E80274D0E9B05EBC30517
:1053E000D5E90034CDE90434299B002B19DA069B5A
:1053F000002B16DC0ED1264B0022DDE90401FDF75F
:105400004BFB02460B46DDE90801FDF7C1FD002814
:1054100000F02C844FF000090A9E4F46299BDD4383
:1054200025E2DDE90445DDE9088922462B464046B0
:105430004946FDF75BFCFDF7C9FD0646FDF7C2FADC
:1054400022462B46FDF728FB0A9F0B46024649469B
:105450004046FDF769F906F1300307F8013B069B6A
:10546000012B00F012830125CDF818A09946DDE943
:1054700004ABA8462CE000BF28A1016000A1016098
:105480000000F03F00001C400000E03F000024400E
:105490000000144052465B4620462946FDF726FC94
:1054A000FDF794FD0646FDF78DFA52465B46FDF783
:1054B000F3FA08F101080B46024629462046FDF79B
:1054C00033F906F13003C84507F8013B00F0DB82F1
:1054D000B94B0022FDF7E0FA0022002304460D46F6
:1054E000FDF742FD0028D5D00E9DDDF818A001354E
:1054F0003E46B0E00C9A002A40F0D28000230F9D77
:105500000B9E0C931F4656B1002C08DDA6420B9A49
:105510003346A8BF2346D21A0B92F61AE41A0F9B01
:1055200053B10C9B13B1002D40F0E88251460F9A05
:10553000039811F049FA82460398012111F060F9AD
:105540008146BBF1000F40F0B681289B012B40F350
:10555000CC810120204410F01F0000F09A80C0F19F
:105560002003042B40F3DA810B9BC0F11C000344A1
:105570000B93064404440B9B002B05DD5146039816
:105580001A4611F07BFA8246002C05DD4946039845
:10559000224611F073FA8146109B002B40F0708177
:1055A000069B002B40F348810C9B002B40F0A4800D
:1055B0000E9D0135DDF82880069CDDF80CB0012633
:1055C00007E0514600230A22584611F077F80136C9
:1055D00082464946504610F097FAA64200F1300341
:1055E00008F8013BEDDB069A002AC8BF16460A9A66
:1055F000D8BF012602EB060B002451460122039876
:10560000049311F03BFA4946824611F0AFFA0028A4
:1056100040F3E3810A9A02E05A4500F0E9815E46D0
:105620000BF1FF3B16F8013C392BF5D001338BF819
:105630000030DDF80C804946404611F035F857B18E
:105640002CB1BC4203D02146404611F02DF80398FE
:10565000394611F029F80398514611F025F8002336
:1056600033702A9B1D602C9B002B3FF494AC0A984E
:105670001E601FB0BDE8F08F5846FDF7A3F9324613
:105680003B46FDF771FC00287FF4DCAC0BF1FF3BDF
:10569000D8E41C230B9A1A440B921E441C446AE75C
:1056A000289A012A40F3A981069A0F9B551EAB4206
:1056B000C0F26B81002AA3EB050580F2DD820B9B13
:1056C000069A9E1A0398012111F09AF807461AE7E4
:1056D000C3F1200306FA03F081E40125E4E439462E
:1056E000002303980A2210F0E9FF189B002B0746BD
:1056F00040F3EF820E950693002E00F33F81BBF13D
:10570000000F40F0DF81B8460A9E069C731E1C44C1
:10571000049B0C9403F00103039C0F9349465046ED
:1057200010F0F2F939468346504611F01FFA42460E
:1057300049460546204611F039FAC26801460BF188
:105740003003002A3AD1089050460B9311F00EFA1C
:1057500008990690204610F0A7FF069A0B9B002A96
:105760005AD1289A1AB90F9A002A00F09A82002D6D
:1057700045DB0C9AB346B2420BF8013B00F0B9810D
:10578000514600230A22204610F098FF47458246E2
:1057900039464FF000034FF00A02204636D010F091
:1057A0008DFF4146074600230A22204610F086FF5F
:1057B0005E468046B2E700BF00002440039806938F
:1057C00010F072FF002D069B06DB049A289902F068
:1057D00001020D432A432AD1514601220398049322
:1057E00011F04CF94946824611F0C0F90028049B9B
:1057F00040F3E880392B00F02F820BF131030E9D2E
:1058000006F8013B3C460135474612E710F056FFCB
:105810005E460746804681E7002DC0F27D822899CA
:105820000D430F990D4300F07782002AA1DD392B3B
:1058300000F012820133E2E7289B022B7FF7B4AE1F
:10584000069B002B40F01D8149460522039810F06D
:1058500035FF01468146504611F088F9002840F393
:1058600010810A9E0E9D312306F8013B01350398F5
:105870004946013510F018FF002F7FF4E8AEEAE644
:105880004946504611F072F90028BFF689AE5146DC
:10589000002303980A2210F011FF0E9B5D1E0C9B43
:1058A0008246002B7FF41BAF189B002B40F3FF8137
:1058B0000E9D06937EE601465A46039811F084F841
:1058C000289B012B81466CDD4FF0000BD9F810307E
:1058D00009EB8303186910F041FFC0F1200039E69D
:1058E000924B0A930333FFF7FABB049B002B7FF420
:1058F00030AEDDE90412C2F31303002B7FF429AEAE
:105900008B4B134023B10B9B01330B9301340123C9
:10591000BBF1000F40F0AE819B461AE63FF42BAE80
:10592000C0F13C03B6E601230C93299B0E9A134465
:1059300018930133012B1E460693B8BF0126172E7C
:1059400040F3D581012204235B0003F11400B0422F
:10595000114602F10102F7D9039B596411E40123B6
:105960000C93299B002B33DD189306931E46E6E724
:1059700000230C93D9E700230C93F2E739460398F0
:10598000324611F07BF80746B9E60F9B069A0F9551
:10599000EB1A9B440B9B1E46134414440B930025A7
:1059A00090E6049B002B8FD1DDE90401C1F31303C2
:1059B0000A46002B88D1A3E7DDE908230227CDE9B9
:1059C00012230BE47FF41BAFDA077FF518AF11E762
:1059D000012329930693FFF7CFBB03D1049BDB0779
:1059E0003FF518AE5E461BF8013D302BFAD020E69D
:1059F0000A9A3123013513701BE6119A002A00F030
:105A0000F98003F233430B9A0F9D16461A441C4447
:105A10000B9257E6C8F1010304460B931090FFF771
:105A20009BBB00F0EB800E9B424D5E4206F00F03E5
:105A300005EBC303D3E90023DDE90801FDF72CF8EA
:105A40003511CDE9120100F04D813B4E00230227B4
:105A500080468946E80709D5D6E9002340464946ED
:105A6000FDF71AF801378046894601236D1006F1CB
:105A70000806EFD1002B7FF4CAABDDE91289FFF7EE
:105A8000C6BB0A9ECAE4DDF818A00E9D02460B466E
:105A9000FCF74CFE02460B46CDE906230135DDE955
:105AA0000423A846FDF788FA40B9DDE90423DDE9BF
:105AB0000601FDF759FA18B1F10701D50A9A4AE42F
:105AC0003E46C8E57968039810F0C8FD05460028F1
:105AD00000F026813B6902339A0007F10C010C307B
:105AE000FDF74AFE03982946012210F0C7FF8046C1
:105AF0000AE60E9D3C46013547467EE5DDF80C8002
:105B000039462A46404610F05FFF52460146074696
:105B1000404610F0A3FE51468246404610F0C4FDB8
:105B20000F9B5B1B0F933FF407ADFFE458BC016074
:105B30000000F07F28A1016000A10160DDE91401EF
:105B4000FCF7AAFF0A9B1F70129B012BCDE90C01E9
:105B500000F0C680129F0A9BCDF844B01F447C4BD6
:105B6000002240464946FCF797FF89468046FDF7EC
:105B70002DFA8346FCF726FF0BF1300B02460B464D
:105B800040464946FCF7D0FD06F801BBB7428046C7
:105B90008946E4D1DDF844B06E4B0022DDE90C010A
:105BA000FCF7C4FD02460B4640464946FDF704FAA1
:105BB000002867D1DDE90C2366490020FCF7B4FD1D
:105BC00002460B4640464946FDF7D8F948B91D9BA9
:105BD000002BFFF693AC0E9B0E2B3FF78FACFFF71D
:105BE000FCBB3E46013F16F8013C302BF9D0199D15
:105BF000013530E51C9BC3F1360304E7DDE9088974
:105C00000227FFF704BB069B002B3FF4B8AB189BA1
:105C1000002B7FF7D9AB0E9A1293013A4C4B199295
:105C2000404600224946FCF737FF80468946781CEB
:105C3000FCF7C8FE42464B46FCF72EFF464B0022BF
:105C4000FCF774FD0646A1F15077FFF701BB08F1A0
:105C500001083123FFF786BB0E9D0A9AB34639230C
:105C60003C460BF8013B01354746D8E44FF00009AC
:105C70004F46F6E59B4629E60B9B1E46134414440B
:105C80000B931FE5199B0A9A03F10108FFF763BB09
:105C9000DDF858A0ABE7DDE91AB4DDF858A0FFF74E
:105CA00093BB392BD8D0002D3FF7A7ADA7E5289B94
:105CB000022B0ADC189B069349460E9D0FF024FF29
:105CC0000A9A00F1300313708DE4189B06930E9529
:105CD000B6E5289B022BF8DC189B0E9506930BE586
:105CE000374659E7DDE912890227FFF790BA039B8F
:105CF00000215964FFF745BA039B00255D642946DE
:105D0000184610F0ABFC0A90A8B9144B14480022B6
:105D10004FF4D5710CF04CFE002A7FF770AD5BE5B7
:105D20000E4B0F482A4640F2EA210CF041FE0D4B83
:105D30000A93FFF730B9039B0A9A1A644FF0FF33B6
:105D40000122299518930C920693FFF73DBB00BFE3
:105D5000000024400000E03F00001C405CBC0160EB
:105D600070BC01604CBC016070B504460E4683688F
:105D70003921DB689847054620B10B480DF076F9CC
:105D8000284670BD4FF0FF324FF0FF3307480AF04E
:105D90007DF8A36806F110021F2120461B69984771
:105DA00002480AF043F9EBE78EBD01604CA92020C0
:105DB0002DE9F04FA5B00223334D8C22334F002143
:105DC00001A8EB60AF600DF0F3F849F64040002108
:105DD00011F06BFB2E4E304613F09EFB18B9316864
:105DE0002C4811F035FCB3682B491B6828489847AC
:105DF000021E03DA0021294811F02AFC0024DFF8F2
:105E0000A0804FF0000A02234FF0FF3240466B6043
:105E10000C232B824FF0FF3311F043FBB3681A4978
:105E20005B681B489847011E03DA1E4811F010FCFE
:105E3000E9E740460DF1040911F035FB24AB388841
:105E400003EB840B0134FDF7EFF923234BF88C0CA3
:105E50004FF0000BB4FBF3F203FB124453460BF17B
:105E6000010B184659F8041BFDF72EF9BBF1230F5F
:105E70000346F4D10C49FDF7E3FA0C4B00211860FE
:105E80000A2011F012FBBEE7D8BA202004D9202046
:105E900018990160B4BD0160F6A10160D8BD016030
:105EA00074A92020FABD016000000C42D4BA202061
:105EB00000211E4810B5FDF75FFE1D4C002801466D
:105EC000206002DA1B4811F0C3FB4FF42F7011F071
:105ED000EEFA00211548FDF74FFE0028014620602C
:105EE00002DA144811F0B4FB322011F0E0FA00217C
:105EF0001148FDF741FE00280146206002DA0D48F6
:105F000011F0A6FB4FF42F7011F0D1FA00210A48CE
:105F1000FDF732FE00280146206002DA054811F044
:105F200097FB322011F0C3FA206810BD10A2016067
:105F3000FCBA20200FBE016000A201602B4B0021A3
:105F400010B51B682A4C5A1C1AD12A48FDF714FEBA
:105F500000280146206002DA274811F079FB322040
:105F600011F0A5FA254B26481968FDF705FE002813
:105F70000146206002DA234811F06AFB206810BD58
:105F8000012B1F4816D1FDF7F7FD002801462060C0
:105F900002DA1D4811F05CFB322011F088FA174B31
:105FA00014481968FDF7E8FD002801462060E5DA8D
:105FB0001648E1E7FDF7E0FD00280146206002DA1F
:105FC00013480DF053F8322011F071FA00210948FE
:105FD000FDF7D2FD00280146206002DA0C480DF0E2
:105FE00045F8322011F063FAC8E700BF98A62020D8
:105FF000FCBA202010A201603FBE016004BB20203B
:1060000000A201606DBE01609DBE01600FBE016017
:10601000CBBE016010B5194C204613F07DFA18B9BB
:10602000216817480DF022F8144813F075FA18B9D2
:10603000216813480DF01AF800211248FDF79CFD65
:10604000011E02DA10480DF011F800210F48FDF78B
:1060500093FD011E02DA0C480DF008F80C4C237871
:1060600043B9FFF725FF002807DB0A20002111F0C4
:106070001CFAF4E7FFF762FFF5E710BD48990160ED
:10608000F0BE016000A20160CBBE016010A2016001
:1060900018D9202010B510490446FCF785F980B1C5
:1060A0000E492046FCF780F980B1002454B92046FF
:1060B00013F032FA216858B1094811F0C9FA2046A4
:1060C00010BD084C084811F0C3FAF0E7074CF9E797
:1060D00007480CF0CBFFF2E713BF016017BF016068
:1060E00038BF0160789901601BBF01606099016051
:1060F0004DBF016038B5064C064D0748FFF7CAFF93
:10610000206029462068FFF72FFE0028F9D038BD0F
:1061100014BB20201CBB202017BF016070B50546B2
:106120000E4683683921DB68984704464FF0FF32FA
:106130004FF0FF33114809F0A9FE3CB10F4809F0B8
:1061400075FF21460E4811F083FA15E0AB68324620
:10615000032128461B69984704460028EED1AB6806
:1061600006F11802072128461B6998470446034890
:1061700009F05CFF002CE4D1204670BD60A920200E
:10618000ACBF01602DE9F04F91B005460E4600937B
:1061900002F00403DDF868900193C2F3C203029297
:1061A00001330493830740F0FE81041D30B10729B9
:1061B00009D86FF01B0011B0BDE8F08F01F00706A1
:1061C000341DC6F108064FF00008009B4FF0040B89
:1061D0004FF0FF32591E47464346DA46CDF80C8051
:1061E0000DB1009820600498002800F3E1809C48DD
:1061F000DDF800C0844503D39A488445C0F0D880B8
:10620000DDF808C0A4EB050E1CF0020F4FEA9E005B
:1062100000F0E9804FF0000CD3E07A2864D84B28D6
:106220000FD8472860D829282FD825285BD05BD8DD
:1062300020287FD0A0F12309D9F1000343EB090303
:1062400078E0A0F14C0EBEF12E0F4DD8DFE80EF035
:10625000724C4C4C4C4C4C4C4C4C4C4C4E4C4C4C56
:106260004C4C4C4C4C5C4C4E4E5C5C5C724E6F4CDF
:10627000724C184E184C4C817E4E4C4C4E4C7E004D
:10628000002000234FF0040B3CE0A0F12A0E012077
:106290005FFA8EFE00FA0EFE4FF6DA701EEA000F6D
:1062A00048D11EF062502FD11EF0010342D0013CB4
:1062B000CBF1000E5C4404EA0E04002D5ED0AAEB84
:1062C000050EA6447645FFF474AF002868D1BAF1F4
:1062D000040F43D1E14659F8040B20600434CC4646
:1062E0004FF0040A26E0013A002323E011F8013CB4
:1062F0006C2B30D111F8023C00206C2B0346C1D12D
:106300004FF0080BDA46D2E70CF10709073429F001
:10631000070C24F00704FCE802AB35B105982044D3
:10632000B0423FF646AFC4E900AB083400234FF05B
:10633000080BDA4611F8010F002800F0BC80002B92
:106340007FF46BAF2528F5D1013201234FF0040B08
:10635000EFE7184695E700200346A8E7BAF1080FD3
:1063600040F09B800CF1070929F0070CFCE8029A29
:10637000C4E9009A08344FF0080ADBE780B9BAF1A3
:10638000040F02D10CF10409A8E7BAF1080F40F09C
:1063900084800CF1070929F0070909F1080CE9E7E5
:1063A0000498E1460138049059F8040B009017E76F
:1063B0000298800748D5A4EB050E4FF0010C4FEA78
:1063C0009E00BEF5007F1DD3274940F27B23274A5C
:1063D000274811F0E9FB274811F0E6FB40F27B214A
:1063E000224811F0DAFB0F2F0ED8002D46D007F10E
:1063F000400CEC440CF8200C0CF8102C03980130E5
:10640000039020E00F2F0CD917494FF42073174A3F
:10641000174811F0C9FB184811F0C6FB4FF4207162
:10642000DEE7BDB107F1400EC0B2EE440EF8200C1D
:106430000EF8102CBCF1000FE0D060F07F0008F1E6
:1064400001080EF8200C0137C5F108000434CC46D1
:1064500005906FE7BCF1000F10D00136F3E700BFE5
:10646000189701609CEA01606EC20160C9BF0160BB
:10647000F7BF016014C0016035C0016001980236A9
:106480000028E0D100980592CDE90631FBF718FF0E
:10649000059A0644DDE90631D5E740F2C523434AB3
:1064A0004349444811F080FB5146434811F07CFBBE
:1064B00040F2C52194E7631BB3F5806F0CD33C49D0
:1064C00040F2D123394A3B4811F06EFB3B4811F0B2
:1064D0006BFB40F2D12183E71DB9A6F10804E01857
:1064E00069E69B08019A28602B709DF80C30C2B1B8
:1064F000EB7085F80280B8F1000F05D008A80022E3
:10650000C5F1010C97420ED1C5F101030DF120092F
:106510004FF0000A0DF1300B0293574512D1601B6A
:1065200049E66B70E5E710F8013B190608D504EB66
:106530000C0E03F07F037645FFF43BAE04F8013BFD
:106540000132DFE7B8F1000F03D099F90020002AEB
:1065500017DB019BD3B11AF80B2004F8012B0022A2
:10656000029B981820448642FFF423AE99F800005D
:10657000009904F8010B20460392FDF7FDF8039AF9
:1065800014440AF1010A09F10109C6E799F800204B
:1065900055F822300093019B009845F82230FBF714
:1065A0008FFE421CDCE76FF00D0004E6C9BF0160FE
:1065B0006EC20160F7BF01604FC0016064C001603E
:1065C0002DE9F04F97B0044600AFD7F880A0FB61EB
:1065D000C7E90A1258B9AB494FF46573AA4AAB48E8
:1065E00011F0E2FA4FF46571A74811F0D6FACAF338
:1065F000C0037B61BB6A53B9037846788078BD6A73
:1066000000EB83002044B54219D3031BBB62E3783F
:1066100094F802B0BB61BBF1000F02D01AF0010F79
:1066200016D1BB6953BBFB6A1BB1FA692046B96A34
:106630009847BD6A28465C37BD46BDE8F08F00F13B
:10664000010801354046FBF73BFE01304044DAE7E4
:10665000237862687B629B003A623B617B6A04EB51
:106660008309FB6A002B40F00181BD6AC84609EB33
:106670000B03002643454ED1D94413E01AF0020F14
:10668000D1D0237899467B629B0004EB89093B615A
:1066900063683B62FB6A002B7CD1BD6ABBF1000FD3
:1066A00050D15E461AF0050F0CBF02230123FB6296
:1066B000BB6909EB430B0AF00203BB62D945B9D0B1
:1066C00019F8021B19F8013C54F82380704B9845C7
:1066D00002D3704B98453BD37B69002B45D0386A79
:1066E00010F07BFF002840D0E8468AB06A466A4B2B
:1066F00053613B6AC2E906314FF400731384674B60
:1067000042F8103F00234FF412516548023D02F059
:10671000A7F8C546D2E718F8012BFB6254F822000F
:10672000FBF7CEFDD7F884200130FB6A42B1D7F8E1
:10673000882096423EBFD7F8842022F81600013602
:10674000054497E71AF004061CBFD944FE6AA9E77E
:106750007B6923B1386A10F040FF0028C4D11AF0D9
:10676000010F05D1FB6AED1AA8E7BB6A002BA5D083
:106770004046FBF7A5FDD7F884304BB1D7F88830F9
:106780009E423FBF431CD7F8842022F816300136C2
:10679000054493E7BBF1000F6ED01AF004066ED0EB
:1067A000D846002607F148005A464946FCF7E4FF60
:1067B000BB69D9445B00FB60BB6909EB4303BB6069
:1067C0000AF002037B60BB684B456BD11AF0020FE5
:1067D000637808BF4FEA580106EB030218BF002197
:1067E0001AF0010FD2B240F0E1801AF0040F14BF8A
:1067F000404600203B626270A0702046E170FA695A
:106800003969FB6A9847051EFFF614AF7B6A41465B
:10681000FA6907F1480023703B6A84F802B063709C
:10682000BB69E370FB6A9847B0F10008C0F2EC80E6
:10683000BB6A4846FA69A3EB0B013B69C91AFB68BE
:10684000C91AFB6A98470028C0F2E080A8444FF0BC
:10685000000B07F1380A08EB0005B345C0F2A88029
:106860000021FA69FB6A08469847E3E65E464FF066
:10687000000807F1380097E75E46D84698E7B0462B
:1068800096E700BF7BC00160C9BF0160F7BF016030
:10689000189701609CEA016096C001600400000145
:1068A00048A0016019F8021B594B19F8015C54F813
:1068B0002500984202D3574B984216D37B692BB1DF
:1068C000386A10F08AFE00287FF47DAF7B68002BC9
:1068D0004AD00F2E3ED950494FF489634F4A504851
:1068E00011F062F94FF489617EE67B692BB1386A59
:1068F00010F073FE00287FF466AF1AF0010F0BD082
:106900000F2E27D9444940F23E43444A444811F0EF
:106910004BF940F23E4167E61AF0040F3FF453AFE3
:10692000B8F10F0F09D93F4940F241433B4A3C4877
:1069300011F03AF940F2414156E608F1280307F117
:10694000300208F1010103EB020808F8105C5FFA5D
:1069500081F838E706F1280307F13002711C9E1810
:1069600006F8205CCEB22EE7B8F10F0F09D92D49F9
:1069700040F24B43294A2A4811F016F940F24B41A4
:1069800032E608F1280307F1300208F1010008F1AE
:10699000020803EB020C07F158035FFA88F853FA78
:1069A00080F00CF8101C00F8105C0CE7002021E7C8
:1069B0001BF80A3054F8239087F83730D7F8843022
:1069C000FBB133F81B80FA69012107F13700FB6A3C
:1069D000984700281ADB0544B8F1000F06D1484655
:1069E000FBF76EFC00F101081FFA88F8FA694146CE
:1069F0004846FB6A9847002808DB05440BF1010B69
:106A00002BE7D7F88480DEE7454613E6054611E616
:106A1000189701609CEA016039C10160C9BF01603B
:106A2000F7BF016058C10160014B1860704700BF9B
:106A3000A4A6202030B5002587B004460095059512
:106A4000CDE9030103A9054800F0DCF9DDE90430D4
:106A50009842B8BF255407B030BD00BF2976016009
:106A6000F8B50F4600293BD006680122304610F0E9
:106A70004BFE01460446304610F00EFEC3070DD40F
:106A8000AF23184A1849194811F08EF839461848AA
:106A900011F08AF8AF21134811F07FF821463046F3
:106AA00010F010FE251800223046294610F0F4FDA3
:106AB0002D1AAC420BD0B7230A4A0E490B4811F0ED
:106AC00073F839460C4811F06FF8B721E3E7214617
:106AD000304610F0FDFD2146BDE8F84010F03ABF09
:106AE000F8BD00BF89C10160AAC10160F7BF0160A4
:106AF000BBC10160F3C1016019C201602DE9F84317
:106B0000066814460F464B1EB268B2F5004F34BFFC
:106B1000042108213B400FD0C7F10009581E09EAA3
:106B20000709494528BF494618420CD11F46DCB920
:106B300000252846BDE8F8838F4213D82146BDE8DA
:106B4000F84310F049BF2F494FF4A2732E4A2F4843
:106B500011F02AF82E4811F027F84FF4A2712A48B4
:106B600011F01BF89946E2E7B2EBD40FE0D9E31934
:106B70001046591A10F0D2FD0146304610F029FE99
:106B800080460028D4D0B36809EBC0053046B3F581
:106B9000004F34BF042308231D447B1E7F4235442D
:106BA0001D443D40A5EB09052C44294610F0ACFDE1
:106BB000804504F10704074624F00704A4EB06040B
:106BC0004FEAE40408D202464146304610F03BFE4C
:106BD0004146304610F07CFE3946304610F072FDDA
:106BE0003844844208D239463046224610F02BFE03
:106BF0002146304610F06CFE01223946304610F036
:106C000067FD96E755C2016089C10160F7BF016069
:106C100070C20160B2F5802FF8B510D2042A28D8CE
:106C200041494FF4F973414A414810F0BDFF4148D2
:106C300010F0BAFF4FF4F9713C4810F0AEFF082392
:106C4000D21ACC1D114424F0070421F00701091BBE
:106C500017294FEAD1060ED8374940F2FB13334AC1
:106C6000334810F0A1FF334810F09EFF40F2FB11B3
:106C7000E2E70423E4E70027046031463046A660DB
:106C8000E76010F055FD01218500024630461B35B6
:106C900010F044FDED082844B04234D804F10C0152
:106CA0003B4638469A423BDA2A4620460021771B6B
:106CB00010F026FD002320461A46194610F0F7FC76
:106CC00019462046012210F003FD3A46294610F0ED
:106CD00017FD2B4600222946204610F0E8FC3146DD
:106CE000204610F00DFD3B4631462046002210F0B4
:106CF000DEFC31462046012210F0EAFC2946BDE8C0
:106D0000F84010F0E5BD0D494FF40373074A0848F9
:106D100010F04AFF074810F047FF4FF403718BE76C
:106D2000013341F8040FBDE78DC2016089C10160E4
:106D3000F7BF0160AEC20160C7C20160F0C201606E
:106D4000F0B502460168084E00200A270B460131C3
:106D50001C78355D6D0701D41360F0BD07FB00435F
:106D6000A3F13000F2E700BFC5BA01602DE9F84F8A
:106D700015469A46D3788046214A0F466F2B12F863
:106D800003B00BF0030B29D024D8582B0CBF1026CE
:106D90000A26DDF828903246002340463946FCF7A3
:106DA000D1FC092AD4B21ED83034B045E4B277F110
:106DB000000709F8014D01D3D14511D82B789B0666
:106DC00005D5082E15D1AB7843F00803AB704846C3
:106DD000BDE8F88F03F0F703702BD7E70826D8E754
:106DE00080460F46D7E7BBF1010F0CBF373457344D
:106DF000DBE7102EEBD1AB7843F01003E6E700BFE2
:106E0000C5BA01602DE9F04F82469FB016461C4678
:106E100000250391307810B9284600F085BD731C19
:106E20002528069306D00399D0470028C0F27C8518
:106E300001351FE21822002110A80CF0B9F8737870
:106E4000252B00F0BC800023711C98469E469C4672
:106E500018460F4611F8012B2B2A00F0DF8000F2B4
:106E6000D680202A00F0DD80232A00F0DD802BB1BF
:106E70009DF8483043F040038DF84830B8F1000FDA
:106E800005D09DF8483043F020038DF84830BEF11E
:106E9000000F05D09DF8483043F010038DF84830BE
:106EA000BCF1000F05D09DF8483043F008038DF881
:106EB000483028B19DF8483043F004038DF848303D
:106EC0009DF8483003F04401442903D16FF3861341
:106ED0008DF848309DF848302A2A0E9743F08003F9
:106EE0008DF8483040F0A5809DF8493043F001030B
:106EF0008DF849307B1C1A782E2A9DF849200CBF4A
:106F00000121002161F341028DF849200CD15A1C66
:106F10000E925A782A2A40F09C809DF8492002332C
:106F200042F004028DF849201A786C2A00F0BD80E6
:106F300000F29F80682A00F0A5806A2A00F0BE80D7
:106F40004C2A00F0C38013F8012B782A06938DF8A1
:106F50004B2000F205816D2A00F2C580692A00F2FB
:106F6000FF80572A00F2DE80412A04D0A2F14503B7
:106F7000022B00F2F58002F0DF029DF84A30042176
:106F8000A2F1410861F302039DF84910D8F1000213
:106F90008DF84A3042EB080262F3C7110A06CBB201
:106FA0008DF8491000F11B8103F07802182A40F097
:106FB00005816FF3C6038DF849300023F4E0B21C5D
:106FC0008DF84B3006929DF84930DF0740F109817A
:106FD00054F8042B002A049208DA9DF8482042F065
:106FE00004028DF84820049A52420492580740F156
:106FF000008154F8047B002F80F2FF809DF8493017
:107000006FF341038DF849304FF0FF37F5E02D2A3B
:107010000DD0302A7FF42BAF01231AE74FF0010C7B
:1070200017E74FF0010E14E74FF0010811E70120B8
:107030000FE70EA8FFF784FE0E9BBB423FF45BAF49
:107040009DF848201390C00F60F341028DF848204E
:1070500051E70EA8FFF774FE9DF848301490C3F373
:10706000400242EAD07262F341038DF848300E9B31
:107070005AE7742A26D07A2A7FF465AF9DF8492012
:1070800006210CE05A78682A9DF8492006D1012192
:1070900061F3C60202338DF8492054E7022161F3FF
:1070A000C6028DF8492001334DE75A786C2A9DF8C5
:1070B000492001D10421EBE70321F0E79DF84920A5
:1070C0000521ECE79DF849200721E8E7BDF84820B5
:1070D00022F4F04222F0020242F4804242F0020224
:1070E000ADF84820DFE76E3AD3B201229A4040F271
:1070F00082431A429DF8493039D112F0240F61D1F0
:10710000D1072DD503F078039DF84A200321A3F180
:10711000400C61F30202DCF100038DF84A2043EBDE
:107120000C0341E0A2F158010120C9B200FA01F1BB
:1071300011F4624F7FF41FAF40F6010319429DF82E
:1071400049301AD111F4043F0AD09DF84A2060F367
:10715000020203F078038DF84A20402B7FF42DAF14
:107160009DF8483043F001038DF8483025E79DF83D
:107170004A20022161F30202EBE79DF84A10022047
:1071800003F0780360F30201402B8DF84A1002BF30
:107190009DF8481041F001018DF84810632A7FF4F2
:1071A0000CAF003B18BF01239DF84820C2F34001FB
:1071B0000B4363F341028DF8482004E713F0380FC6
:1071C000CED1FAE69DF84A20032113F0780F61F33F
:1071D000020214BF012300238DF84A20E4E70123B3
:1071E000E2E79DF94820002AB4BF139A4FF0FF321E
:1071F000FBE699077FF508AF149F00239DF849101F
:10720000CDE913339DF84A3003F00702042A07D171
:107210008A0705D49DF94920002AACBF06270D270F
:1072200003F00703C1F3C301012B33D1CB1E042BA1
:1072300004D8DFE803F02146462121002368012914
:107240004FEAE372CDE910321CD19DF94030DA17D4
:10725000CDE9103204349DF8483007939B0750D095
:10726000069B32460399504610F017FC0028C0F2E6
:107270005B830544069ECDE554F8043BDA17CDE95F
:107280001032E8E70229E5D11AB243F3C033CDE961
:107290001023DFE7022B24D1CB1E042B04D8DFE818
:1072A00003F0181010181800012954F8043B4FF08F
:1072B000000214D00229CDE91032CCD19BB2109338
:1072C000C9E7073424F00704F4E80223CDE91023CA
:1072D000C1E754F8043B109300231193BBE7DBB2E2
:1072E000CDE7042B08D1073424F00704D4E90023A8
:1072F0000834CDE91023AEE7032BACD154F8043B9E
:10730000DDE79DF84BB0BBF1780FB3D8BBF1570F59
:1073100049D8BBF1250F00F09180BBF1240FA9D90A
:10732000BBF1410F03D0ABF14502022AA2D8DDE93F
:107330001012002AC0F23681079B180700F1358130
:10734000C3F300194FEA4919C2F30A50C2F31302FA
:10735000002840F02D8151EA020614BF01260026C4
:10736000D202BBF1460F42EA515208BF4FF0660B02
:10737000C90242EAE07C40EA010E5EEA0C0CCDE96B
:107380000C1200F09D81002E40F049810D9AA0F270
:10739000FE3842F000420D9200204FF0050CDDE96E
:1073A0000C12064655E1ABF15802202A3FF662AFB7
:1073B00001A050F822F000BF4375006075720060B4
:1073C00075720060757200607572006075720060A1
:1073D0007572006075720060757200602F730060D6
:1073E00075720060C7740060DB7400602F7300600A
:1073F0002F7300602F73006075720060DB74006093
:107400007572006075720060757200607572006060
:107410007D7500604375006049750060757200609D
:10742000757200604374006075720060437500609F
:10743000757200607572006043750060039958466C
:10744000F2E4002F109E3ADB394630460BF034FE52
:107450003718002E3FF40EAF4FF000099DF84A3068
:1074600013F01002059200F05482023013F0400332
:10747000DDF84C800893404418BF149BCDF81C8065
:1074800018BFC018049B002B40F35E829DF8482073
:107490001B1A5007C2F3800B049300F1558251066A
:1074A00040F14582B9F1000F07D003994846D04713
:1074B0000028C0F239820135D946302238E2304600
:1074C000FAF7FEFEC4E7109B4FF000090DF15D07CF
:1074D00017AE01208DF85C30C0E7079B1E0754BF34
:1074E000C3F300194FF02B09DDE9102358BF4FEA11
:1074F0004919002B06DA52424FF02D0963EB430382
:10750000CDE910230DF1750312AA009317ABDDE945
:107510001001FFF72BFC0646002F0CDB0DF1750365
:107520009DF848209B1B6FF386129F428DF84820E0
:1075300001D9FB1A1393002E3FF49CAE0DF1750791
:107540005BE04FF00009DDE71098002800F0DC81D7
:107550000DF1750312AA00214FF00009009317AB3B
:10756000FFF704FCBDF84A30064603F0EF0343F48E
:10757000F04343F01003ADF84A30CDE7109B0729E4
:107580003FF678AEDFE801F00C04060C08080C0C9E
:107590001D706FE61D806DE6EA17C3E9005269E6CB
:1075A0001D6067E64FF02D09CEE64FF02B09CBE6C4
:1075B00040F2FF76B0422FD10BF101039D480A4300
:1075C000DBB2C35C03F003031ED1012B0BBF4923C5
:1075D00069234E216E210CBF462266228DF85C3055
:1075E0000DF15F079DF848308DF85D106FF386133D
:1075F0008DF85E208DF8483017AEB81BB9F1000F3A
:107600003FF42CAF013029E7012B15BF6E234E2329
:10761000612141211A46E1E70026A1E60138491817
:107620005241002AFADACDE90C12AFE64908404689
:1076300008F1010841EAC2715208B2F1333FF5D2B4
:107640000CFB02FE00F10208A1FB0C12013E01201E
:10765000724418F1020FE9DB08B1CDE90C12B8F160
:10766000000FDDE90C212EDCC8F1040008F11C0834
:10767000A0F1200CC24021FA00F301FA08F80BF047
:10768000DF0021FA0CFC42EA08020893472842EA8C
:107690000C0239D1F31C01DBB7422BDAABF1020348
:1076A000002F5FFA83FB7EDD9DF84800013F8006D6
:1076B00079D43B1E18BF0123059307F101082DE083
:1076C0004FF0000868E602320CA808F1FF3806F116
:1076D000010641F10001CDE90C2110F0AFF9DDE91F
:1076E0000C21921808F1FF3849410029F9DACDE957
:1076F0000C21B4E79DF84830BF1B990651D43B1EBE
:1077000018BF0123059304E00023BBF1660F059326
:10771000D3D117EB06084FF0660B46D4B8F1100F23
:10772000A8BF4FF0100810204FF000610B90002010
:10773000CDE90E01DDE90E03B8F1000F38D11218C2
:10774000089941EB0301B1F1805F3FD2CDE90C21F3
:10775000079BBBF1660F03F0200240F0B480002EBF
:107760003FDC30218DF85C10002A65D1002F40F3FA
:10777000AC812E228DF85D2086B172429DF84A10B0
:10778000BA42A8BF3A46002AA7EB02071392D4BF19
:107790000022012262F345118DF84A100DF15E08B6
:1077A00037E00023AEE7002386E74FF00008BAE792
:1077B0004008099208F1FF3840EAC3705B08CDE940
:1077C0000E030EA810F03AF9099AB3E752080CA874
:1077D000013642EAC1724908CDE90C2110F02EF9B8
:1077E000B6E70DF15C080B99002909DD0BA90CA87F
:1077F000079210F03BF9013E079A08F8010BF2D10D
:1078000013969AB9002F40F35E812E2108F8011BD0
:107810000026002F19DD0B9A002A16DD0BA90CA8F3
:1078200010F024F9013F08F8010BF2E72E2208F8C6
:10783000012BEDE7C4BA01602E228DF85D20002EE9
:10784000ACD0002F99DC0DF15E08059B002B4ED1CA
:10785000149747460BF0DF02452A23D1002E87F804
:1078600000B0BABF76422D232B23632E7B70C9BF95
:107870006421BA1CFA1CB6FBF1F3C8BF01FB136606
:107880004FF00A01C8BF03F13000B6FBF1F3C8BFE7
:10789000B87003F1300001FB13631746303307F86B
:1078A000020B5370139B002B2CDC149B002BD4BFBA
:1078B000002301239DF84A2063F3861200238DF8EC
:1078C0004A203B7098E60BA90CA8079210F0CEF85E
:1078D000079A30288DF85C0018BF06F1FF3612B900
:1078E000002F40F3F2802E228DF85D2056E74746A8
:1078F00008F1FF3817F8012C302AF8D02E2A08BFDB
:107900004746A7E70123D5E7714F814605207E1F33
:10791000A4E51A0748BF0130A8E51046099203996B
:10792000D0470028099A05DA1FB0BDE8F08F202261
:10793000DDF810B059460BF1FF3B0029EDDC049B4C
:10794000CDF810B02B445D1AB9F1000F05D00399A2
:107950004846D0470028E7DB0135089B002B77D04D
:107960009DF94930002B28DB3346DFF86891187801
:107970009B46013319F8002052073FD49DF84A3046
:10798000AE1B98065E4407D4424608F1FF38002A31
:107990003BDC079B33449E1A9BF800002E280AD13B
:1079A0000399D0470028BFDBB8F1000F06F10106AC
:1079B00031DC0BF1010B5D4638E0B14699F800006F
:1079C000C84609F10109702813D1AE1B4644149D25
:1079D0003544AB1B002B33DC3B46424603995046F3
:1079E00010F05BF800289FDB3044049E05460644F7
:1079F00064E00399D0470028E0DA95E705930399FE
:107A0000D0470028059BB2DA8EE703993020D04793
:107A10000028B9DA88E70399302008F1FF38D04709
:107A2000C0E70399D0470028FFF67EAF2878A84624
:107A3000013519F800305907F3D4A6EB0B06C5E75A
:107A400003993020D0470028FFF66EAF0136C0E71B
:107A50009DF84A30DA0601D41B0706D50399302079
:107A6000D0470028FFF660AF0135059B3BB1039975
:107A70009DF84B00D0470028FFF656AF0135A844CB
:107A800006E003993020D0470028FFF64DAF0135BE
